:100000000C943A000C9444000C9444000C9444006A
:100010000C9444000C9444000C9444000C94440050
:100020000C9444000C9444000C9444000C94440040
:100030000C9444000C9444000C9444000C94440030
:100040000C9444000C9444000C9444000C94440020
:100050000C9444000C9444000C9444000C94440010
:100060000C9444000C9444000C9444000C94440000
:100070000C94440011241FBECFEFD4E0DEBFCDBFEF
:100080000E9479000C94A1000C940000E1E6F0E0DD
:1000900080E880831082A89584B7877F84BFE0E6DC
:1000A000F0E080818861808310820895811105C00D
:1000B000662311F0429A0895429808953A9A429A16
:1000C00008951092800085E0809381001092820054
:1000D000089567E070E00E949000109285001092F1
:1000E0008400209184003091850028173907C8F3D7
:1000F00008950E9446000E945E000E94610061E037
:1001000080E00E94560084EF91E00E94690060E068
:1001100080E00E94560084EF91E00E946900EFCFDA
:100120000024552704C0080E591F880F991F0097F7
:1001300029F076956795B8F37105B9F7802D952F5D
:060140000895F894FFCFC2
:00000001FF
