:100000000C943A000C944C000C944C000C944C0052
:100010000C944C000C944C000C944C000C944C0030
:100020000C944C000C944C000C944C000C944C0020
:100030000C944C000C944C000C944C000C944C0010
:100040000C944C000C944C000C944C000C944C0000
:100050000C944C000C944C000C944C000C944C00F0
:100060000C944C000C944C000C944C000C944C00E0
:100070000C944C0011241FBECFEFD4E0DEBFCDBFE7
:1000800021E0A0E0B1E001C01D92A230B207E1F78B
:100090000E948F000C9402010C9400009C01FC0152
:1000A000FF2784A1832B84A395A1892F832B85A36C
:1000B00081E00895E1E6F0E080E880831082A89571
:1000C00084B7877F84BFE0E6F0E080818861808329
:1000D000108208951092800025E0209381001092F4
:1000E00082009C0140E050E064E87EE180E090E026
:1000F0000E94C10030930101209300010895809176
:100100000001909101012091840030918500281711
:100110003907C8F3109285001092840008950E9458
:100120005A0080E090E40E944E0080E091E00E943E
:100130004E0083E090E40E944E0080E090E80E9430
:100140004E0083E090E10E944E0083E090E80E9420
:100150004E0083E090E20E944E008AE090E00E9410
:100160006A00C0E0D0E00E947F00CD2B31F42E98D1
:1001700046982898C1E0D0E0F6CF2E9A469A289A61
:10018000F0CF052E97FB1EF400940E94D80057FD77
:1001900007D00E94E00007FC03D04EF40C94D80076
:1001A00050954095309521953F4F4F4F5F4F0895A3
:1001B00090958095709561957F4F8F4F9F4F0895D3
:1001C000A1E21A2EAA1BBB1BFD010DC0AA1FBB1F5B
:1001D000EE1FFF1FA217B307E407F50720F0A21BCD
:1001E000B30BE40BF50B661F771F881F991F1A943A
:1001F00069F760957095809590959B01AC01BD0164
:08020000CF010895F894FFCF2F
:00000001FF
